{
  "contractName": "Exchange",
  "abi": [
    {
      "anonymous": false,
      "inputs": [
        {
          "indexed": false,
          "internalType": "address",
          "name": "owner",
          "type": "address"
        },
        {
          "indexed": false,
          "internalType": "uint256",
          "name": "centEU",
          "type": "uint256"
        },
        {
          "indexed": false,
          "internalType": "uint256",
          "name": "centUS",
          "type": "uint256"
        },
        {
          "indexed": false,
          "internalType": "uint256",
          "name": "pennyUK",
          "type": "uint256"
        }
      ],
      "name": "SuccessfullExchange",
      "type": "event"
    },
    {
      "inputs": [],
      "name": "walletInfo",
      "outputs": [
        {
          "internalType": "address",
          "name": "_owner",
          "type": "address"
        },
        {
          "internalType": "uint256",
          "name": "_centEU",
          "type": "uint256"
        },
        {
          "internalType": "uint256",
          "name": "_centUS",
          "type": "uint256"
        },
        {
          "internalType": "uint256",
          "name": "_pennyUK",
          "type": "uint256"
        }
      ],
      "stateMutability": "view",
      "type": "function",
      "constant": true
    },
    {
      "inputs": [
        {
          "internalType": "uint256",
          "name": "_centEU",
          "type": "uint256"
        }
      ],
      "name": "euroIntoDollar",
      "outputs": [],
      "stateMutability": "payable",
      "type": "function",
      "payable": true
    },
    {
      "inputs": [
        {
          "internalType": "uint256",
          "name": "_centEU",
          "type": "uint256"
        }
      ],
      "name": "euroIntoPound",
      "outputs": [],
      "stateMutability": "payable",
      "type": "function",
      "payable": true
    },
    {
      "inputs": [
        {
          "internalType": "uint256",
          "name": "_centUS",
          "type": "uint256"
        }
      ],
      "name": "dollarIntoEuro",
      "outputs": [],
      "stateMutability": "payable",
      "type": "function",
      "payable": true
    },
    {
      "inputs": [
        {
          "internalType": "uint256",
          "name": "_centUS",
          "type": "uint256"
        }
      ],
      "name": "dollarIntoPound",
      "outputs": [],
      "stateMutability": "payable",
      "type": "function",
      "payable": true
    },
    {
      "inputs": [
        {
          "internalType": "uint256",
          "name": "_pennyUK",
          "type": "uint256"
        }
      ],
      "name": "poundIntoEuro",
      "outputs": [],
      "stateMutability": "payable",
      "type": "function",
      "payable": true
    },
    {
      "inputs": [
        {
          "internalType": "uint256",
          "name": "_pennyUK",
          "type": "uint256"
        }
      ],
      "name": "poundIntoDollar",
      "outputs": [],
      "stateMutability": "payable",
      "type": "function",
      "payable": true
    }
  ],
  "bytecode": "0x6080604052604051806080016040528073c0ffee254729296a45a3885639ac7e10f9d5497973ffffffffffffffffffffffffffffffffffffffff168152602001612710815260200161271081526020016127108152506000808201518160000160006101000a81548173ffffffffffffffffffffffffffffffffffffffff021916908373ffffffffffffffffffffffffffffffffffffffff16021790555060208201518160010155604082015181600201556060820151816003015550503480156100c957600080fd5b50610951806100d96000396000f3fe6080604052600436106100705760003560e01c8063cb3c2a181161004e578063cb3c2a18146100db578063d9a28a91146100f7578063e4b779b914610113578063ed9a836e1461012f57610070565b80633e779162146100755780633f2a6c1f14610091578063a1d52c5d146100ad575b600080fd5b61008f600480360381019061008a9190610720565b61014b565b005b6100ab60048036038101906100a69190610720565b610226565b005b3480156100b957600080fd5b506100c2610301565b6040516100d2949392919061079d565b60405180910390f35b6100f560048036038101906100f09190610720565b61034c565b005b610111600480360381019061010c9190610720565b610427565b005b61012d60048036038101906101289190610720565b610502565b005b61014960048036038101906101449190610720565b6105dd565b005b8060006002015461015c9190610811565b6000600201819055506000610170826106b8565b90506127106051826101829190610845565b6127106000600301546101959190610845565b61019f9190610887565b6101a991906108ea565b6000600301819055507f886f26cfd7c6323e5a253da4091d51214399ba6d4efdd29320851141c4c0501f6000800160009054906101000a900473ffffffffffffffffffffffffffffffffffffffff1660006001015460006002015460006003015460405161021a949392919061079d565b60405180910390a15050565b806000600301546102379190610811565b600060030181905550600061024b826106b8565b9050612710607b8261025d9190610845565b6127106000600201546102709190610845565b61027a9190610887565b61028491906108ea565b6000600201819055507f886f26cfd7c6323e5a253da4091d51214399ba6d4efdd29320851141c4c0501f6000800160009054906101000a900473ffffffffffffffffffffffffffffffffffffffff166000600101546000600201546000600301546040516102f5949392919061079d565b60405180910390a15050565b6000806000806000800160009054906101000a900473ffffffffffffffffffffffffffffffffffffffff16600060010154600060020154600060030154935093509350935090919293565b8060006002015461035d9190610811565b6000600201819055506000610371826106b8565b9050612710605f826103839190610845565b6127106000600101546103969190610845565b6103a09190610887565b6103aa91906108ea565b6000600101819055507f886f26cfd7c6323e5a253da4091d51214399ba6d4efdd29320851141c4c0501f6000800160009054906101000a900473ffffffffffffffffffffffffffffffffffffffff1660006001015460006002015460006003015460405161041b949392919061079d565b60405180910390a15050565b806000600101546104389190610811565b600060010181905550600061044c826106b8565b9050612710606a8261045e9190610845565b6127106000600201546104719190610845565b61047b9190610887565b61048591906108ea565b6000600201819055507f886f26cfd7c6323e5a253da4091d51214399ba6d4efdd29320851141c4c0501f6000800160009054906101000a900473ffffffffffffffffffffffffffffffffffffffff166000600101546000600201546000600301546040516104f6949392919061079d565b60405180910390a15050565b806000600301546105139190610811565b6000600301819055506000610527826106b8565b90506127106075826105399190610845565b61271060006001015461054c9190610845565b6105569190610887565b61056091906108ea565b6000600101819055507f886f26cfd7c6323e5a253da4091d51214399ba6d4efdd29320851141c4c0501f6000800160009054906101000a900473ffffffffffffffffffffffffffffffffffffffff166000600101546000600201546000600301546040516105d1949392919061079d565b60405180910390a15050565b806000600101546105ee9190610811565b6000600101819055506000610602826106b8565b90506127106056826106149190610845565b6127106000600301546106279190610845565b6106319190610887565b61063b91906108ea565b6000600301819055507f886f26cfd7c6323e5a253da4091d51214399ba6d4efdd29320851141c4c0501f6000800160009054906101000a900473ffffffffffffffffffffffffffffffffffffffff166000600101546000600201546000600301546040516106ac949392919061079d565b60405180910390a15050565b60006002826106c79190610845565b6064836106d49190610845565b6106de9190610811565b9050919050565b600080fd5b6000819050919050565b6106fd816106ea565b811461070857600080fd5b50565b60008135905061071a816106f4565b92915050565b600060208284031215610736576107356106e5565b5b60006107448482850161070b565b91505092915050565b600073ffffffffffffffffffffffffffffffffffffffff82169050919050565b60006107788261074d565b9050919050565b6107888161076d565b82525050565b610797816106ea565b82525050565b60006080820190506107b2600083018761077f565b6107bf602083018661078e565b6107cc604083018561078e565b6107d9606083018461078e565b95945050505050565b7f4e487b7100000000000000000000000000000000000000000000000000000000600052601160045260246000fd5b600061081c826106ea565b9150610827836106ea565b925082820390508181111561083f5761083e6107e2565b5b92915050565b6000610850826106ea565b915061085b836106ea565b9250828202610869816106ea565b915082820484148315176108805761087f6107e2565b5b5092915050565b6000610892826106ea565b915061089d836106ea565b92508282019050808211156108b5576108b46107e2565b5b92915050565b7f4e487b7100000000000000000000000000000000000000000000000000000000600052601260045260246000fd5b60006108f5826106ea565b9150610900836106ea565b9250826109105761090f6108bb565b5b82820490509291505056fea26469706673582212203b91ab829b8bf466bb8a05286429a73d2e57bd358ca02e8166ee155311ac88b164736f6c63430008110033",
  "immutableReferences": {},
  "source": "// SPDX-License-Identifier: UNLICENSED\r\npragma solidity >=0.4.22 <0.9.0;\r\n\r\ncontract Exchange {\r\n    \r\n    struct Wallet {\r\n        address owner;\r\n        uint centEU;\r\n        uint centUS;\r\n        uint pennyUK;\r\n    }\r\n\r\n    Wallet testWallet = Wallet(0xc0ffee254729296a45a3885639AC7E10F9d54979, 10000, 10000, 10000);\r\n\r\n    event SuccessfullExchange(address owner, uint centEU, uint centUS, uint pennyUK);\r\n\r\n    function walletInfo()public view returns (address _owner, uint _centEU, uint _centUS, uint _pennyUK){\r\n        return(testWallet.owner, testWallet.centEU, testWallet.centUS, testWallet.pennyUK);\r\n    }\r\n\r\n    function getFee(uint _moneyBevoreFee) private pure returns(uint){\r\n        return (_moneyBevoreFee * 100 - _moneyBevoreFee * 2);\r\n    }\r\n\r\n    function euroIntoDollar(uint _centEU) public payable{\r\n        testWallet.centEU = testWallet.centEU - _centEU;\r\n        uint moneyAfterFee = getFee(_centEU);\r\n        testWallet.centUS = (testWallet.centUS * 10000 + moneyAfterFee * 106) / 10000;\r\n        emit SuccessfullExchange(testWallet.owner, testWallet.centEU, testWallet.centUS, testWallet.pennyUK);\r\n    }\r\n\r\n    function euroIntoPound(uint _centEU) public payable{\r\n        testWallet.centEU = testWallet.centEU - _centEU;\r\n        uint moneyAfterFee = getFee(_centEU);\r\n        testWallet.pennyUK = (testWallet.pennyUK * 10000 + moneyAfterFee * 86) / 10000;\r\n        emit SuccessfullExchange(testWallet.owner, testWallet.centEU, testWallet.centUS, testWallet.pennyUK);\r\n    }\r\n\r\n        function dollarIntoEuro(uint _centUS) public payable{\r\n        testWallet.centUS = testWallet.centUS - _centUS;\r\n        uint moneyAfterFee = getFee(_centUS);\r\n        testWallet.centEU = (testWallet.centEU * 10000 + moneyAfterFee * 95) / 10000;\r\n        emit SuccessfullExchange(testWallet.owner, testWallet.centEU, testWallet.centUS, testWallet.pennyUK);\r\n    }\r\n\r\n        function dollarIntoPound(uint _centUS) public payable{\r\n        testWallet.centUS = testWallet.centUS - _centUS;\r\n        uint moneyAfterFee = getFee(_centUS);\r\n        testWallet.pennyUK = (testWallet.pennyUK * 10000 + moneyAfterFee * 81) / 10000;\r\n        emit SuccessfullExchange(testWallet.owner, testWallet.centEU, testWallet.centUS, testWallet.pennyUK);\r\n    }\r\n\r\n        function poundIntoEuro(uint _pennyUK) public payable{\r\n        testWallet.pennyUK = testWallet.pennyUK - _pennyUK;\r\n        uint moneyAfterFee = getFee(_pennyUK);\r\n        testWallet.centEU = (testWallet.centEU * 10000 + moneyAfterFee * 117) / 10000;\r\n        emit SuccessfullExchange(testWallet.owner, testWallet.centEU, testWallet.centUS, testWallet.pennyUK);\r\n    }\r\n\r\n        function poundIntoDollar(uint _pennyUK) public payable{\r\n        testWallet.pennyUK = testWallet.pennyUK - _pennyUK;\r\n        uint moneyAfterFee = getFee(_pennyUK);\r\n        testWallet.centUS = (testWallet.centUS * 10000 + moneyAfterFee * 123) / 10000;\r\n        emit SuccessfullExchange(testWallet.owner, testWallet.centEU, testWallet.centUS, testWallet.pennyUK);\r\n    }\r\n\r\n}",
  "sourcePath": "C:\\Users\\yusuf\\OneDrive\\Desktop\\Exchange\\Exchange\\contracts\\Exchange.sol",
  "compiler": {
    "name": "solc",
    "version": "0.8.17+commit.8df45f5f.Emscripten.clang"
  },
  "schemaVersion": "3.4.11",
  "updatedAt": "2022-12-12T20:56:14.646Z",
  "networkType": "ethereum",
  "devdoc": {
    "kind": "dev",
    "methods": {},
    "version": 1
  },
  "userdoc": {
    "kind": "user",
    "methods": {},
    "version": 1
  }
}